{
  "contractName": "VehicleRecordBook",
  "abi": [
    {
      "inputs": [],
      "payable": false,
      "stateMutability": "nonpayable",
      "type": "constructor"
    },
    {
      "anonymous": false,
      "inputs": [
        {
          "indexed": true,
          "name": "from",
          "type": "address"
        },
        {
          "indexed": true,
          "name": "vin",
          "type": "string"
        }
      ],
      "name": "Creation",
      "type": "event"
    },
    {
      "anonymous": false,
      "inputs": [
        {
          "indexed": true,
          "name": "from",
          "type": "address"
        },
        {
          "indexed": true,
          "name": "to",
          "type": "address"
        },
        {
          "indexed": true,
          "name": "vin",
          "type": "string"
        }
      ],
      "name": "Transfer",
      "type": "event"
    },
    {
      "constant": false,
      "inputs": [
        {
          "name": "y",
          "type": "uint16"
        },
        {
          "name": "m",
          "type": "uint8"
        },
        {
          "name": "d",
          "type": "uint8"
        },
        {
          "name": "_invoiceAmount",
          "type": "uint16"
        },
        {
          "name": "_invoiceHash",
          "type": "string"
        }
      ],
      "name": "addVehicleServiceDetails",
      "outputs": [],
      "payable": false,
      "stateMutability": "nonpayable",
      "type": "function"
    },
    {
      "constant": true,
      "inputs": [
        {
          "name": "serviceId",
          "type": "uint256"
        }
      ],
      "name": "getServiceMetaInfo",
      "outputs": [
        {
          "name": "",
          "type": "uint16"
        },
        {
          "name": "",
          "type": "string"
        }
      ],
      "payable": false,
      "stateMutability": "view",
      "type": "function"
    },
    {
      "constant": true,
      "inputs": [
        {
          "name": "serviceId",
          "type": "uint256"
        }
      ],
      "name": "getServicedate",
      "outputs": [
        {
          "name": "",
          "type": "uint16"
        },
        {
          "name": "",
          "type": "uint8"
        },
        {
          "name": "",
          "type": "uint8"
        }
      ],
      "payable": false,
      "stateMutability": "view",
      "type": "function"
    },
    {
      "constant": false,
      "inputs": [
        {
          "name": "_policyNumber",
          "type": "string"
        },
        {
          "name": "_claimNumber",
          "type": "string"
        },
        {
          "name": "_amount",
          "type": "uint256"
        },
        {
          "name": "y",
          "type": "uint16"
        },
        {
          "name": "m",
          "type": "uint8"
        },
        {
          "name": "d",
          "type": "uint8"
        },
        {
          "name": "hash",
          "type": "string"
        },
        {
          "name": "_status",
          "type": "uint8"
        }
      ],
      "name": "addClaim",
      "outputs": [],
      "payable": false,
      "stateMutability": "nonpayable",
      "type": "function"
    },
    {
      "constant": true,
      "inputs": [
        {
          "name": "_claimNo",
          "type": "string"
        }
      ],
      "name": "getClaim",
      "outputs": [
        {
          "name": "_policyNumber",
          "type": "string"
        },
        {
          "name": "_claimNumber",
          "type": "string"
        },
        {
          "name": "_amount",
          "type": "uint256"
        },
        {
          "name": "year",
          "type": "uint16"
        },
        {
          "name": "month",
          "type": "uint8"
        },
        {
          "name": "day",
          "type": "uint8"
        },
        {
          "name": "hash",
          "type": "string"
        },
        {
          "name": "_status",
          "type": "uint8"
        }
      ],
      "payable": false,
      "stateMutability": "view",
      "type": "function"
    },
    {
      "constant": false,
      "inputs": [
        {
          "name": "_policyNumber",
          "type": "string"
        },
        {
          "name": "_premiumAmount",
          "type": "uint32"
        },
        {
          "name": "starty",
          "type": "uint16"
        },
        {
          "name": "startm",
          "type": "uint8"
        },
        {
          "name": "startd",
          "type": "uint8"
        },
        {
          "name": "endy",
          "type": "uint16"
        },
        {
          "name": "endm",
          "type": "uint8"
        },
        {
          "name": "endd",
          "type": "uint8"
        },
        {
          "name": "hash",
          "type": "string"
        }
      ],
      "name": "addPolicy",
      "outputs": [],
      "payable": false,
      "stateMutability": "nonpayable",
      "type": "function"
    },
    {
      "constant": false,
      "inputs": [
        {
          "name": "vin",
          "type": "string"
        }
      ],
      "name": "createVehicle",
      "outputs": [
        {
          "name": "",
          "type": "bool"
        }
      ],
      "payable": false,
      "stateMutability": "nonpayable",
      "type": "function"
    },
    {
      "constant": false,
      "inputs": [
        {
          "name": "vin",
          "type": "string"
        },
        {
          "name": "kilometers",
          "type": "uint256"
        }
      ],
      "name": "updateKilometers",
      "outputs": [],
      "payable": false,
      "stateMutability": "nonpayable",
      "type": "function"
    },
    {
      "constant": false,
      "inputs": [
        {
          "name": "vin",
          "type": "string"
        },
        {
          "name": "owner",
          "type": "address"
        },
        {
          "name": "kilometers",
          "type": "uint256"
        }
      ],
      "name": "transferOwnership",
      "outputs": [],
      "payable": false,
      "stateMutability": "nonpayable",
      "type": "function"
    },
    {
      "constant": true,
      "inputs": [
        {
          "name": "vin",
          "type": "string"
        }
      ],
      "name": "getCar",
      "outputs": [
        {
          "name": "owner",
          "type": "address"
        }
      ],
      "payable": false,
      "stateMutability": "view",
      "type": "function"
    }
  ],
  "bytecode": "0x608060405234801561001057600080fd5b50611dd4806100206000396000f3006080604052600436106100a4576000357c0100000000000000000000000000000000000000000000000000000000900463ffffffff16806307086024146100a95780631f3782691461011c5780632132730e1461017f5780632bb81546146102005780632e52ce73146103f7578063346e393b146104ac57806346969232146105bb578063479487e31461065a578063a24aadf414610703578063b0ddc6a314610796575b600080fd5b3480156100b557600080fd5b5061011a600480360381019080803590602001908201803590602001908080601f0160208091040260200160405190810160405280939291908181526020018383808284378201915050505050509192919290803590602001909291905050506108ca565b005b34801561012857600080fd5b50610147600480360381019080803590602001909291905050506108ce565b604051808461ffff1661ffff1681526020018360ff1660ff1681526020018260ff1660ff168152602001935050505060405180910390f35b34801561018b57600080fd5b506101e6600480360381019080803590602001908201803590602001908080601f0160208091040260200160405190810160405280939291908181526020018383808284378201915050505050509192919290505050610923565b604051808215151515815260200191505060405180910390f35b34801561020c57600080fd5b50610267600480360381019080803590602001908201803590602001908080601f0160208091040260200160405190810160405280939291908181526020018383808284378201915050505050509192919290505050610bb3565b6040518080602001806020018981526020018861ffff1661ffff1681526020018760ff1660ff1681526020018660ff1660ff168152602001806020018560ff1660ff16815260200184810384528c818151815260200191508051906020019080838360005b838110156102e75780820151818401526020810190506102cc565b50505050905090810190601f1680156103145780820380516001836020036101000a031916815260200191505b5084810383528b818151815260200191508051906020019080838360005b8381101561034d578082015181840152602081019050610332565b50505050905090810190601f16801561037a5780820380516001836020036101000a031916815260200191505b50848103825286818151815260200191508051906020019080838360005b838110156103b3578082015181840152602081019050610398565b50505050905090810190601f1680156103e05780820380516001836020036101000a031916815260200191505b509b50505050505050505050505060405180910390f35b34801561040357600080fd5b5061042260048036038101908080359060200190929190505050611159565b604051808361ffff1661ffff16815260200180602001828103825283818151815260200191508051906020019080838360005b83811015610470578082015181840152602081019050610455565b50505050905090810190601f16801561049d5780820380516001836020036101000a031916815260200191505b50935050505060405180910390f35b3480156104b857600080fd5b506105b9600480360381019080803590602001908201803590602001908080601f0160208091040260200160405190810160405280939291908181526020018383808284378201915050505050509192919290803563ffffffff169060200190929190803561ffff169060200190929190803560ff169060200190929190803560ff169060200190929190803561ffff169060200190929190803560ff169060200190929190803560ff169060200190929190803590602001908201803590602001908080601f016020809104026020016040519081016040528093929190818152602001838380828437820191505050505050919291929050505061121b565b005b3480156105c757600080fd5b50610658600480360381019080803561ffff169060200190929190803560ff169060200190929190803560ff169060200190929190803561ffff169060200190929190803590602001908201803590602001908080601f01602080910402602001604051908101604052809392919081815260200183838082843782019150505050505091929192905050506115b1565b005b34801561066657600080fd5b506106c1600480360381019080803590602001908201803590602001908080601f016020809104026020016040519081016040528093929190818152602001838380828437820191505050505050919291929050505061174f565b604051808273ffffffffffffffffffffffffffffffffffffffff1673ffffffffffffffffffffffffffffffffffffffff16815260200191505060405180910390f35b34801561070f57600080fd5b50610794600480360381019080803590602001908201803590602001908080601f0160208091040260200160405190810160405280939291908181526020018383808284378201915050505050509192919290803573ffffffffffffffffffffffffffffffffffffffff169060200190929190803590602001909291905050506117e6565b005b3480156107a257600080fd5b506108c8600480360381019080803590602001908201803590602001908080601f0160208091040260200160405190810160405280939291908181526020018383808284378201915050505050509192919290803590602001908201803590602001908080601f016020809104026020016040519081016040528093929190818152602001838380828437820191505050505050919291929080359060200190929190803561ffff169060200190929190803560ff169060200190929190803560ff169060200190929190803590602001908201803590602001908080601f0160208091040260200160405190810160405280939291908181526020018383808284378201915050505050509192919290803560ff1690602001909291905050506117eb565b005b5050565b6000806000600460000160000160009054906101000a900461ffff16600460000160000160029054906101000a900460ff16600460000160000160039054906101000a900460ff169250925092509193909250565b6000806000836040518082805190602001908083835b60208310151561095e5780518252602082019150602081019050602083039250610939565b6001836020036101000a038019825116818451168082178552505050505050905001915050908152602001604051809103902060010160009054906101000a900473ffffffffffffffffffffffffffffffffffffffff1673ffffffffffffffffffffffffffffffffffffffff161415156109d457fe5b816000836040518082805190602001908083835b602083101515610a0d57805182526020820191506020810190506020830392506109e8565b6001836020036101000a03801982511681845116808217855250505050505090500191505090815260200160405180910390206000019080519060200190610a56929190611c83565b50336000836040518082805190602001908083835b602083101515610a905780518252602082019150602081019050602083039250610a6b565b6001836020036101000a038019825116818451168082178552505050505050905001915050908152602001604051809103902060010160006101000a81548173ffffffffffffffffffffffffffffffffffffffff021916908373ffffffffffffffffffffffffffffffffffffffff160217905550816040518082805190602001908083835b602083101515610b3a5780518252602082019150602081019050602083039250610b15565b6001836020036101000a03801982511681845116808217855250505050505090500191505060405180910390203373ffffffffffffffffffffffffffffffffffffffff167f7576f50ccb78780070e33f52db6f472443623d0b8531b84deecbdd9df393367d60405160405180910390a360019050919050565b606080600080600080606060006001896040518082805190602001908083835b602083101515610bf85780518252602082019150602081019050602083039250610bd3565b6001836020036101000a03801982511681845116808217855250505050505090500191505090815260200160405180910390206000018054600181600116156101000203166002900480601f016020809104026020016040519081016040528092919081815260200182805460018160011615610100020316600290048015610cc25780601f10610c9757610100808354040283529160200191610cc2565b820191906000526020600020905b815481529060010190602001808311610ca557829003601f168201915b505050505097506001896040518082805190602001908083835b602083101515610d015780518252602082019150602081019050602083039250610cdc565b6001836020036101000a03801982511681845116808217855250505050505090500191505090815260200160405180910390206001018054600181600116156101000203166002900480601f016020809104026020016040519081016040528092919081815260200182805460018160011615610100020316600290048015610dcb5780601f10610da057610100808354040283529160200191610dcb565b820191906000526020600020905b815481529060010190602001808311610dae57829003601f168201915b505050505096506001896040518082805190602001908083835b602083101515610e0a5780518252602082019150602081019050602083039250610de5565b6001836020036101000a03801982511681845116808217855250505050505090500191505090815260200160405180910390206002015495506001896040518082805190602001908083835b602083101515610e7b5780518252602082019150602081019050602083039250610e56565b6001836020036101000a038019825116818451168082178552505050505050905001915050908152602001604051809103902060030160000160009054906101000a900461ffff1694506001896040518082805190602001908083835b602083101515610efd5780518252602082019150602081019050602083039250610ed8565b6001836020036101000a038019825116818451168082178552505050505050905001915050908152602001604051809103902060030160000160029054906101000a900460ff1693506001896040518082805190602001908083835b602083101515610f7e5780518252602082019150602081019050602083039250610f59565b6001836020036101000a038019825116818451168082178552505050505050905001915050908152602001604051809103902060030160000160039054906101000a900460ff1692506001896040518082805190602001908083835b602083101515610fff5780518252602082019150602081019050602083039250610fda565b6001836020036101000a03801982511681845116808217855250505050505090500191505090815260200160405180910390206004018054600181600116156101000203166002900480601f0160208091040260200160405190810160405280929190818152602001828054600181600116156101000203166002900480156110c95780601f1061109e576101008083540402835291602001916110c9565b820191906000526020600020905b8154815290600101906020018083116110ac57829003601f168201915b505050505091506001896040518082805190602001908083835b60208310151561110857805182526020820191506020810190506020830392506110e3565b6001836020036101000a038019825116818451168082178552505050505050905001915050908152602001604051809103902060050160009054906101000a900460ff169050919395975091939597565b60006060600460010160009054906101000a900461ffff166004600201808054600181600116156101000203166002900480601f01602080910402602001604051908101604052809291908181526020018280546001816001161561010002031660029004801561120b5780601f106111e05761010080835404028352916020019161120b565b820191906000526020600020905b8154815290600101906020018083116111ee57829003601f168201915b5050505050905091509150915091565b8860028a6040518082805190602001908083835b602083101515611254578051825260208201915060208101905060208303925061122f565b6001836020036101000a0380198251168184511680821785525050505050509050019150509081526020016040518091039020600001908051906020019061129d929190611c83565b508760028a6040518082805190602001908083835b6020831015156112d757805182526020820191506020810190506020830392506112b2565b6001836020036101000a038019825116818451168082178552505050505050905001915050908152602001604051809103902060010160006101000a81548163ffffffff021916908363ffffffff1602179055506060604051908101604052808861ffff1681526020018760ff1681526020018660ff1681525060028a6040518082805190602001908083835b6020831015156113895780518252602082019150602081019050602083039250611364565b6001836020036101000a038019825116818451168082178552505050505050905001915050908152602001604051809103902060020160008201518160000160006101000a81548161ffff021916908361ffff16021790555060208201518160000160026101000a81548160ff021916908360ff16021790555060408201518160000160036101000a81548160ff021916908360ff1602179055509050506060604051908101604052808561ffff1681526020018460ff1681526020018360ff1681525060028a6040518082805190602001908083835b6020831015156114855780518252602082019150602081019050602083039250611460565b6001836020036101000a038019825116818451168082178552505050505050905001915050908152602001604051809103902060030160008201518160000160006101000a81548161ffff021916908361ffff16021790555060208201518160000160026101000a81548160ff021916908360ff16021790555060408201518160000160036101000a81548160ff021916908360ff1602179055509050508060028a6040518082805190602001908083835b60208310151561155c5780518252602082019150602081019050602083039250611537565b6001836020036101000a038019825116818451168082178552505050505050905001915050908152602001604051809103902060040190805190602001906115a5929190611c83565b50505050505050505050565b6000858160000160006101000a81548161ffff021916908361ffff160217905550848160000160026101000a81548160ff021916908360ff160217905550838160000160036101000a81548160ff021916908360ff16021790555060606040519081016040528082606060405190810160405290816000820160009054906101000a900461ffff1661ffff1661ffff1681526020016000820160029054906101000a900460ff1660ff1660ff1681526020016000820160039054906101000a900460ff1660ff1660ff168152505081526020018461ffff16815260200183815250600460008201518160000160008201518160000160006101000a81548161ffff021916908361ffff16021790555060208201518160000160026101000a81548160ff021916908360ff16021790555060408201518160000160036101000a81548160ff021916908360ff160217905550505060208201518160010160006101000a81548161ffff021916908361ffff1602179055506040820151816002019080519060200190611743929190611d03565b50905050505050505050565b600080826040518082805190602001908083835b6020831015156117885780518252602082019150602081019050602083039250611763565b6001836020036101000a038019825116818451168082178552505050505050905001915050908152602001604051809103902060010160009054906101000a900473ffffffffffffffffffffffffffffffffffffffff169050919050565b505050565b600015156003886040518082805190602001908083835b6020831015156118275780518252602082019150602081019050602083039250611802565b6001836020036101000a038019825116818451168082178552505050505050905001915050908152602001604051809103902060009054906101000a900460ff16151514151561187657600080fd5b60016003886040518082805190602001908083835b6020831015156118b0578051825260208201915060208101905060208303925061188b565b6001836020036101000a038019825116818451168082178552505050505050905001915050908152602001604051809103902060006101000a81548160ff021916908315150217905550876001886040518082805190602001908083835b602083101515611933578051825260208201915060208101905060208303925061190e565b6001836020036101000a0380198251168184511680821785525050505050509050019150509081526020016040518091039020600001908051906020019061197c929190611c83565b50866001886040518082805190602001908083835b6020831015156119b65780518252602082019150602081019050602083039250611991565b6001836020036101000a038019825116818451168082178552505050505050905001915050908152602001604051809103902060010190805190602001906119ff929190611c83565b50856001886040518082805190602001908083835b602083101515611a395780518252602082019150602081019050602083039250611a14565b6001836020036101000a038019825116818451168082178552505050505050905001915050908152602001604051809103902060020181905550816001886040518082805190602001908083835b602083101515611aac5780518252602082019150602081019050602083039250611a87565b6001836020036101000a03801982511681845116808217855250505050505090500191505090815260200160405180910390206004019080519060200190611af5929190611c83565b50806001886040518082805190602001908083835b602083101515611b2f5780518252602082019150602081019050602083039250611b0a565b6001836020036101000a038019825116818451168082178552505050505050905001915050908152602001604051809103902060050160006101000a81548160ff021916908360ff1602179055506060604051908101604052808661ffff1681526020018560ff1681526020018460ff168152506001886040518082805190602001908083835b602083101515611bdb5780518252602082019150602081019050602083039250611bb6565b6001836020036101000a038019825116818451168082178552505050505050905001915050908152602001604051809103902060030160008201518160000160006101000a81548161ffff021916908361ffff16021790555060208201518160000160026101000a81548160ff021916908360ff16021790555060408201518160000160036101000a81548160ff021916908360ff1602179055509050505050505050505050565b828054600181600116156101000203166002900490600052602060002090601f016020900481019282601f10611cc457805160ff1916838001178555611cf2565b82800160010185558215611cf2579182015b82811115611cf1578251825591602001919060010190611cd6565b5b509050611cff9190611d83565b5090565b828054600181600116156101000203166002900490600052602060002090601f016020900481019282601f10611d4457805160ff1916838001178555611d72565b82800160010185558215611d72579182015b82811115611d71578251825591602001919060010190611d56565b5b509050611d7f9190611d83565b5090565b611da591905b80821115611da1576000816000905550600101611d89565b5090565b905600a165627a7a72305820ff0a9456f2627dda8d022a0671c7700890101a6cbab4adb3955c713f14e2bfc60029",
  "source": "pragma solidity ^0.4.24;\r\n\r\n/**\r\n * Contract to store the mileage of a vehicle\r\n */\r\ncontract VehicleRecordBook{\r\n\r\n    event Creation(\r\n        address indexed from,\r\n        string indexed vin\r\n    );\r\n\r\n    event Transfer(\r\n        address indexed from,\r\n        address indexed to,\r\n        string indexed vin\r\n    );\r\n\r\n    struct Date {\r\n        uint16 year;\r\n        uint8 month;\r\n        uint8 day;\r\n    }\r\n\r\n    struct vehicle {\r\n        string vin;\r\n        address owner;\r\n    }\r\n\r\n    struct Policy {\r\n        string policyNumber;\r\n        uint32 premiumPaid;\r\n        Date startDate;\r\n        Date endDate;\r\n        string policyHash;\r\n    }\r\n\r\n    struct Claims {\r\n        string policyNumber;\r\n        string claimNumber;\r\n        uint claimAmount;\r\n        Date date;\r\n        string claimHash;\r\n        uint8 status; // 0: submitted , 1: approved , 2: rejected\r\n    }\r\n\r\n    struct serviceMetaInfo {\r\n        Date dateTime;\r\n        uint16 amount;\r\n        string invoiceHash;\r\n    }\r\n\r\n    mapping (string => vehicle) cars;\r\n    mapping (string => Claims) totalClaims;\r\n    mapping (string => Policy) totalPolicies;\r\n    mapping(string => bool) claimIDs;\r\n    serviceMetaInfo serviceList;\r\n\r\n\r\n\r\n    function addVehicleServiceDetails(uint16 y, uint8 m, uint8 d, uint16  _invoiceAmount, string _invoiceHash) public {\r\n        Date storage serviceDate;\r\n        serviceDate.year = y;\r\n        serviceDate.month = m;\r\n        serviceDate.day = d;\r\n        serviceList = serviceMetaInfo(serviceDate, _invoiceAmount, _invoiceHash);\r\n    }\r\n\r\n    function getServiceMetaInfo(uint serviceId) public view returns(uint16, string) {\r\n        return(serviceList.amount, serviceList.invoiceHash);\r\n    }\r\n\r\n    function getServicedate(uint serviceId) public view returns (uint16, uint8, uint8) {\r\n        return (serviceList.dateTime.year,serviceList.dateTime.month, serviceList.dateTime.day);\r\n    }\r\n\r\n\r\n    function addClaim(string _policyNumber, string _claimNumber, uint _amount, uint16 y, uint8 m, uint8 d, string hash, uint8 _status ) public {\r\n      require(claimIDs[_claimNumber] == false);\r\n    //   require(totalClaims[_policyNumber] != 0);\r\n      claimIDs[_claimNumber] = true;\r\n      totalClaims[_claimNumber].policyNumber = _policyNumber;\r\n      totalClaims[_claimNumber].claimNumber = _claimNumber;\r\n      totalClaims[_claimNumber].claimAmount = _amount;\r\n      totalClaims[_claimNumber].claimHash = hash;\r\n      totalClaims[_claimNumber].status = _status;\r\n      totalClaims[_claimNumber].date = Date(y, m, d);\r\n    }\r\n\r\n    function getClaim( string _claimNo) public view returns (string _policyNumber, string _claimNumber, uint _amount, uint16 year, uint8 month, uint8 day, string hash, uint8 _status ) {\r\n      _policyNumber = totalClaims[_claimNo].policyNumber;\r\n      _claimNumber = totalClaims[_claimNo].claimNumber;\r\n      _amount = totalClaims[_claimNo].claimAmount;\r\n      year = totalClaims[_claimNo].date.year;\r\n      month = totalClaims[_claimNo].date.month;\r\n      day = totalClaims[_claimNo].date.day;\r\n      hash = totalClaims[_claimNo].claimHash;\r\n      _status = totalClaims[_claimNo].status;\r\n    }\r\n\r\n    function addPolicy(string _policyNumber, uint32 _premiumAmount, uint16 starty, uint8 startm, uint8 startd, uint16 endy, uint8 endm, uint8 endd, string hash ) public {\r\n    //   require(totalPolicies[_policyNumber] == \"\");\r\n      totalPolicies[_policyNumber].policyNumber = _policyNumber;\r\n      totalPolicies[_policyNumber].premiumPaid = _premiumAmount;\r\n      totalPolicies[_policyNumber].startDate = Date(starty, startm, startd);\r\n      totalPolicies[_policyNumber].endDate = Date(endy, endm, endd);\r\n      totalPolicies[_policyNumber].policyHash = hash;\r\n    }\r\n\r\n    constructor() public {}\r\n\r\n    /**\r\n     * Creates a track record of a new car.\r\n     * Transaction will fail (and burn gas!) if the car already exists.\r\n     */\r\n    function createVehicle(string vin) public returns(bool){\r\n        assert(cars[vin].owner == 0x0);\r\n        cars[vin].vin = vin;\r\n        cars[vin].owner = msg.sender;\r\n\r\n        emit Creation(msg.sender, vin);\r\n        return true;\r\n    }\r\n\r\n    /**\r\n    * Updates the current kilometers of the car. Transactions fails and burns gas if\r\n    * the new kilometer value is lower than the old one.\r\n    */\r\n    function updateKilometers(string vin, uint kilometers) public {\r\n\r\n\r\n    }\r\n\r\n    /**\r\n     * Transfers the ownership of a car to a different address.\r\n     * Transaction fails and burns gas if the car is not owned by the caller or if the kilometers are\r\n     * less than the last known state.\r\n     */\r\n    function transferOwnership(string vin, address owner, uint kilometers) public {\r\n\r\n    }\r\n\r\n    /**\r\n     * Returns the current data of the given car\r\n     */\r\n    function getCar(string vin) public constant returns( address owner) {\r\n    return( cars[vin].owner);\r\n    }\r\n}\r\n",
  "sourcePath": "C:\\Users\\kushal.seth\\ksdemo\\swarn3\\contracts\\CarRecord.sol",
  "compiler": {
    "name": "solc",
    "version": "0.4.24+commit.e67f0147.Emscripten.clang"
  },
  "schemaVersion": "2.0.1",
  "updatedAt": "2018-07-14T15:55:50.161Z"
}