{
  "contractName": "CarToken",
  "abi": [
    {
      "constant": true,
      "inputs": [
        {
          "name": "",
          "type": "address"
        }
      ],
      "name": "balances",
      "outputs": [
        {
          "name": "",
          "type": "uint256"
        }
      ],
      "payable": false,
      "stateMutability": "view",
      "type": "function"
    },
    {
      "constant": false,
      "inputs": [],
      "name": "renounceOwnership",
      "outputs": [],
      "payable": false,
      "stateMutability": "nonpayable",
      "type": "function"
    },
    {
      "constant": true,
      "inputs": [],
      "name": "totalTokens",
      "outputs": [
        {
          "name": "",
          "type": "uint256"
        }
      ],
      "payable": false,
      "stateMutability": "view",
      "type": "function"
    },
    {
      "constant": true,
      "inputs": [],
      "name": "owner",
      "outputs": [
        {
          "name": "",
          "type": "address"
        }
      ],
      "payable": false,
      "stateMutability": "view",
      "type": "function"
    },
    {
      "constant": true,
      "inputs": [],
      "name": "etherBalance",
      "outputs": [
        {
          "name": "",
          "type": "uint256"
        }
      ],
      "payable": false,
      "stateMutability": "view",
      "type": "function"
    },
    {
      "constant": false,
      "inputs": [
        {
          "name": "_newOwner",
          "type": "address"
        }
      ],
      "name": "transferOwnership",
      "outputs": [],
      "payable": false,
      "stateMutability": "nonpayable",
      "type": "function"
    },
    {
      "inputs": [
        {
          "name": "_initialBalance",
          "type": "uint256"
        }
      ],
      "payable": true,
      "stateMutability": "payable",
      "type": "constructor"
    },
    {
      "anonymous": false,
      "inputs": [
        {
          "indexed": true,
          "name": "sender",
          "type": "address"
        },
        {
          "indexed": true,
          "name": "receiver",
          "type": "address"
        },
        {
          "indexed": false,
          "name": "amount",
          "type": "uint256"
        }
      ],
      "name": "SendTokens",
      "type": "event"
    },
    {
      "anonymous": false,
      "inputs": [
        {
          "indexed": true,
          "name": "previousOwner",
          "type": "address"
        }
      ],
      "name": "OwnershipRenounced",
      "type": "event"
    },
    {
      "anonymous": false,
      "inputs": [
        {
          "indexed": true,
          "name": "previousOwner",
          "type": "address"
        },
        {
          "indexed": true,
          "name": "newOwner",
          "type": "address"
        }
      ],
      "name": "OwnershipTransferred",
      "type": "event"
    },
    {
      "constant": false,
      "inputs": [],
      "name": "addEthersToCar",
      "outputs": [],
      "payable": true,
      "stateMutability": "payable",
      "type": "function"
    },
    {
      "constant": false,
      "inputs": [
        {
          "name": "carTokens",
          "type": "uint256"
        }
      ],
      "name": "withdrawEthersFromCar",
      "outputs": [],
      "payable": true,
      "stateMutability": "payable",
      "type": "function"
    },
    {
      "constant": true,
      "inputs": [],
      "name": "tokenBalance",
      "outputs": [
        {
          "name": "",
          "type": "uint256"
        }
      ],
      "payable": false,
      "stateMutability": "view",
      "type": "function"
    }
  ],
  "bytecode": "0x6080604052670de0b6b3a7640000600455604051602080610afc833981018060405281019080805190602001909291905050506000336000806101000a81548173ffffffffffffffffffffffffffffffffffffffff021916908373ffffffffffffffffffffffffffffffffffffffff16021790555081600181905550336000806101000a81548173ffffffffffffffffffffffffffffffffffffffff021916908373ffffffffffffffffffffffffffffffffffffffff1602179055503460038190555081600260003073ffffffffffffffffffffffffffffffffffffffff1673ffffffffffffffffffffffffffffffffffffffff1681526020019081526020016000208190555060003411156101e35734600454600181151561011e57fe5b0402905061018181600260003373ffffffffffffffffffffffffffffffffffffffff1673ffffffffffffffffffffffffffffffffffffffff168152602001908152602001600020546101ea6401000000000261078c179091906401000000009004565b506101e181600260003073ffffffffffffffffffffffffffffffffffffffff1673ffffffffffffffffffffffffffffffffffffffff1681526020019081526020016000205461020664010000000002610773179091906401000000009004565b505b505061021f565b600081830190508281101515156101fd57fe5b80905092915050565b600082821115151561021457fe5b818303905092915050565b6108ce8061022e6000396000f300608060405260043610610099576000357c0100000000000000000000000000000000000000000000000000000000900463ffffffff168063073a15201461009e57806327e235e3146100a85780634b9c2519146100ff578063715018a61461011f5780637e1c0c09146101365780638da5cb5b146101615780639e1a4d19146101b8578063ad66e52a146101e3578063f2fde38b1461020e575b600080fd5b6100a6610251565b005b3480156100b457600080fd5b506100e9600480360381019080803573ffffffffffffffffffffffffffffffffffffffff1690602001909291905050506103e5565b6040518082815260200191505060405180910390f35b61011d600480360381019080803590602001909291905050506103fd565b005b34801561012b57600080fd5b50610134610537565b005b34801561014257600080fd5b5061014b610639565b6040518082815260200191505060405180910390f35b34801561016d57600080fd5b5061017661063f565b604051808273ffffffffffffffffffffffffffffffffffffffff1673ffffffffffffffffffffffffffffffffffffffff16815260200191505060405180910390f35b3480156101c457600080fd5b506101cd610664565b6040518082815260200191505060405180910390f35b3480156101ef57600080fd5b506101f8610706565b6040518082815260200191505060405180910390f35b34801561021a57600080fd5b5061024f600480360381019080803573ffffffffffffffffffffffffffffffffffffffff16906020019092919050505061070c565b005b60008060009054906101000a900473ffffffffffffffffffffffffffffffffffffffff1673ffffffffffffffffffffffffffffffffffffffff163373ffffffffffffffffffffffffffffffffffffffff161415156102ae57600080fd5b3460045460018115156102bd57fe5b0402905061031381600260003073ffffffffffffffffffffffffffffffffffffffff1673ffffffffffffffffffffffffffffffffffffffff1681526020019081526020016000205461077390919063ffffffff16565b5061036681600260003373ffffffffffffffffffffffffffffffffffffffff1673ffffffffffffffffffffffffffffffffffffffff1681526020019081526020016000205461078c90919063ffffffff16565b5061037c3460035461078c90919063ffffffff16565b503073ffffffffffffffffffffffffffffffffffffffff163373ffffffffffffffffffffffffffffffffffffffff167f18e12d16abbf2e8a463e3f7540eff1573c6c096e86525a7a0e01f3a48ca13d9f346040518082815260200191505060405180910390a350565b60026020528060005260406000206000915090505481565b60008060009054906101000a900473ffffffffffffffffffffffffffffffffffffffff1673ffffffffffffffffffffffffffffffffffffffff163373ffffffffffffffffffffffffffffffffffffffff1614151561045a57600080fd5b816004540290508060035411151561047157600080fd5b3373ffffffffffffffffffffffffffffffffffffffff166108fc829081150290604051600060405180830381858888f193505050501580156104b7573d6000803e3d6000fd5b506104cd8160035461077390919063ffffffff16565b503073ffffffffffffffffffffffffffffffffffffffff163373ffffffffffffffffffffffffffffffffffffffff167f18e12d16abbf2e8a463e3f7540eff1573c6c096e86525a7a0e01f3a48ca13d9f836040518082815260200191505060405180910390a35050565b6000809054906101000a900473ffffffffffffffffffffffffffffffffffffffff1673ffffffffffffffffffffffffffffffffffffffff163373ffffffffffffffffffffffffffffffffffffffff1614151561059257600080fd5b6000809054906101000a900473ffffffffffffffffffffffffffffffffffffffff1673ffffffffffffffffffffffffffffffffffffffff167ff8df31144d9c2f0f6b59d69b8b98abd5459d07f2742c4df920b25aae33c6482060405160405180910390a260008060006101000a81548173ffffffffffffffffffffffffffffffffffffffff021916908373ffffffffffffffffffffffffffffffffffffffff160217905550565b60015481565b6000809054906101000a900473ffffffffffffffffffffffffffffffffffffffff1681565b60008060009054906101000a900473ffffffffffffffffffffffffffffffffffffffff1673ffffffffffffffffffffffffffffffffffffffff163373ffffffffffffffffffffffffffffffffffffffff161415156106c157600080fd5b600260003073ffffffffffffffffffffffffffffffffffffffff1673ffffffffffffffffffffffffffffffffffffffff16815260200190815260200160002054905090565b60035481565b6000809054906101000a900473ffffffffffffffffffffffffffffffffffffffff1673ffffffffffffffffffffffffffffffffffffffff163373ffffffffffffffffffffffffffffffffffffffff1614151561076757600080fd5b610770816107a8565b50565b600082821115151561078157fe5b818303905092915050565b6000818301905082811015151561079f57fe5b80905092915050565b600073ffffffffffffffffffffffffffffffffffffffff168173ffffffffffffffffffffffffffffffffffffffff16141515156107e457600080fd5b8073ffffffffffffffffffffffffffffffffffffffff166000809054906101000a900473ffffffffffffffffffffffffffffffffffffffff1673ffffffffffffffffffffffffffffffffffffffff167f8be0079c531659141344cd1fd0a4f28419497f9722a3daafe3b4186f6b6457e060405160405180910390a3806000806101000a81548173ffffffffffffffffffffffffffffffffffffffff021916908373ffffffffffffffffffffffffffffffffffffffff160217905550505600a165627a7a7230582035e7df54ea2425041f526e4c23a0b66c6078b55d62e6750d16b0021c284ae7ec0029",
  "source": "pragma solidity ^0.4.24;\r\n\r\nimport './Ownable.sol';\r\nimport './SafeMath.sol';\r\n\r\ncontract CarToken is Ownable{\r\n\r\n    using SafeMath for uint256;\r\n    uint public totalTokens;\r\n    mapping(address => uint) public balances;\r\n    uint public etherBalance;\r\n    uint PRICE = 1 * (1 ether);\r\n\r\n    event SendTokens(address indexed sender, address indexed receiver, uint amount);\r\n\r\n    constructor(uint _initialBalance) payable public {\r\n        totalTokens = _initialBalance;\r\n        owner = msg.sender;\r\n        etherBalance = msg.value;\r\n        balances[this] = _initialBalance;\r\n        if(msg.value > 0) {\r\n            uint initialtokenToTransfer = (1 / PRICE) * msg.value;\r\n            balances[msg.sender].add(initialtokenToTransfer);\r\n            balances[this].sub(initialtokenToTransfer);\r\n        }\r\n    }\r\n\r\n    function addEthersToCar() payable onlyOwner  public  {\r\n        uint tokenToTransfer = (1 / PRICE) * msg.value;\r\n        balances[this].sub(tokenToTransfer);\r\n        balances[msg.sender].add(tokenToTransfer);\r\n        etherBalance.add(msg.value);\r\n        emit SendTokens(msg.sender, this, msg.value);\r\n    }\r\n\r\n    function withdrawEthersFromCar(uint carTokens) payable onlyOwner public {\r\n        uint transferAmount = PRICE * carTokens;\r\n        require(etherBalance > transferAmount);\r\n        msg.sender.transfer(transferAmount);\r\n        etherBalance.sub(transferAmount);\r\n        emit SendTokens(msg.sender, this, transferAmount);\r\n    }\r\n\r\n    function tokenBalance() onlyOwner public view returns(uint) {\r\n        return balances[this];\r\n    }\r\n}\r\n",
  "sourcePath": "C:\\Users\\kushal.seth\\ksdemo\\hackathon\\contracts\\CarToken.sol",
  "compiler": {
    "name": "solc",
    "version": "0.4.24+commit.e67f0147.Emscripten.clang"
  },
  "schemaVersion": "2.0.1",
  "updatedAt": "2018-07-08T07:21:48.703Z"
}