{
  "contractName": "GBToken",
  "abi": [
    {
      "inputs": [
        {
          "name": "initialSupply",
          "type": "uint256"
        }
      ],
      "payable": false,
      "stateMutability": "nonpayable",
      "type": "constructor"
    },
    {
      "anonymous": false,
      "inputs": [
        {
          "indexed": true,
          "name": "from",
          "type": "address"
        },
        {
          "indexed": true,
          "name": "to",
          "type": "address"
        },
        {
          "indexed": false,
          "name": "value",
          "type": "uint256"
        }
      ],
      "name": "TransferGB",
      "type": "event"
    },
    {
      "constant": false,
      "inputs": [
        {
          "name": "receiver",
          "type": "address"
        },
        {
          "name": "amount",
          "type": "uint256"
        }
      ],
      "name": "sendTokens",
      "outputs": [],
      "payable": false,
      "stateMutability": "nonpayable",
      "type": "function"
    },
    {
      "constant": true,
      "inputs": [
        {
          "name": "addr",
          "type": "address"
        }
      ],
      "name": "getBalance",
      "outputs": [
        {
          "name": "",
          "type": "uint256"
        }
      ],
      "payable": false,
      "stateMutability": "view",
      "type": "function"
    }
  ],
  "bytecode": "0x608060405234801561001057600080fd5b5060405160208061033c83398101806040528101908080519060200190929190505050806000803373ffffffffffffffffffffffffffffffffffffffff1673ffffffffffffffffffffffffffffffffffffffff16815260200190815260200160002081905550506102b6806100866000396000f30060806040526004361061004c576000357c0100000000000000000000000000000000000000000000000000000000900463ffffffff16806305ab421d14610051578063f8b2cb4f1461009e575b600080fd5b34801561005d57600080fd5b5061009c600480360381019080803573ffffffffffffffffffffffffffffffffffffffff169060200190929190803590602001909291905050506100f5565b005b3480156100aa57600080fd5b506100df600480360381019080803573ffffffffffffffffffffffffffffffffffffffff169060200190929190505050610242565b6040518082815260200191505060405180910390f35b806000803373ffffffffffffffffffffffffffffffffffffffff1673ffffffffffffffffffffffffffffffffffffffff1681526020019081526020016000205410156101405761023e565b806000803373ffffffffffffffffffffffffffffffffffffffff1673ffffffffffffffffffffffffffffffffffffffff16815260200190815260200160002060008282540392505081905550806000808473ffffffffffffffffffffffffffffffffffffffff1673ffffffffffffffffffffffffffffffffffffffff168152602001908152602001600020600082825401925050819055508173ffffffffffffffffffffffffffffffffffffffff163373ffffffffffffffffffffffffffffffffffffffff167fdcc0790ea4d5ede28043b8cace5a24a55841fcad2864794570c855cb877d6675836040518082815260200191505060405180910390a35b5050565b60008060008373ffffffffffffffffffffffffffffffffffffffff1673ffffffffffffffffffffffffffffffffffffffff1681526020019081526020016000205490509190505600a165627a7a7230582068811ee2c5f4de41b1b0665463e07e14bac0707d15821e9f6b337f8caed736430029",
  "source": "pragma solidity ^0.4.20;\r\n\r\n/* GenerationBlockchain token, simplest implementation.\r\n   Not Safe. See:\r\n    - https://github.com/OpenZeppelin/openzeppelin-solidity/blob/master/contracts/token/ERC20/BasicToken.sol\r\n    - https://github.com/OpenZeppelin/openzeppelin-solidity/blob/master/contracts/token/ERC20/SafeERC20.sol\r\n*/\r\ncontract GBToken {\r\n\r\n    /* This creates an array with all balances */\r\n    mapping (address => uint) balances;\r\n    \r\n    /* This generates a public event on the blockchain that will notify listening clients */\r\n    event TransferGB(address indexed from, address indexed to, uint value);\r\n\r\n    /* Initialize the contract, this is the \"constructor\" */\r\n    constructor(uint initialSupply) public {\r\n        // give all tokens to the creator of the contract\r\n        balances[msg.sender] = initialSupply;\r\n    }\r\n    \r\n    /* Send tokens from the message sender's account to the specified account */\r\n    function sendTokens(address receiver, uint amount) public {\r\n        // if sender does not have enough money\r\n        if (balances[msg.sender] < amount) return;\r\n        \r\n        // take funds out of sender's account\r\n        balances[msg.sender] -= amount;\r\n        \r\n        // add those funds to receipient's account\r\n        balances[receiver] += amount;\r\n\r\n        emit TransferGB(msg.sender, receiver, amount);\r\n    }\r\n    \r\n    function getBalance(address addr) public view returns (uint) {\r\n        return balances[addr];\r\n    }\r\n}",
  "sourcePath": "C:\\Users\\kushal.seth\\ksdemo\\GenB_Init\\GenB_Init\\contracts\\GBToken.sol",
  "compiler": {
    "name": "solc",
    "version": "0.4.24+commit.e67f0147.Emscripten.clang"
  },
  "schemaVersion": "2.0.1",
  "updatedAt": "2018-07-01T11:44:08.768Z"
}